:100000000C94B3000C94D2000C94D2000C94D20047
:100010000C94D2000C94D2000C94D2000C94D20018
:100020000C94D2000C94D2000C94D2000C94D20008
:100030000C94D2000C9479010C94D2000C94D20050
:100040000C94D2000C94D2000C94D2000C94D200E8
:100050000C94D2000C94D2000C94D2000C94D200D8
:100060000C94D2000C94D2000C94D2000C94D200C8
:100070000C94D2000C94D2000C94D2000C94D200B8
:100080000C94D2000C94D2000C94D2008303C603CB
:10009000C603C603C603C603C603C603C603C60318
:1000A000C603C603C603C603C603C603C603C60308
:1000B000C603C603C603C603C603C603C603C603F8
:1000C000C603C603C603C603C603C603C603C603E8
:1000D000C603C203C603C603C603C603C603C603DC
:1000E000BB03C603C603C603C603C603BF03870319
:1000F0008B038F03930397039B039F03A303A70320
:10010000C603C603C603C603C603C603C603AB03C2
:10011000AF03B303B703F70302040704130428046F
:100120002D0439044E0453045F04740479048504D7
:100130009A049F04AB04C004C504D104DC04280560
:10014000F604FA042805FD04010528050405080540
:1001500028050B050F0528051205160528051905A4
:100160001D052805230511241FBECFEFD0E4DEBFF7
:10017000CDBF11E0A0E0B1E0EAE3FDE000E00BBF9D
:1001800002C007900D92A231B107D9F721E0A2E198
:10019000B1E001C01D92A033B207E1F70E94310522
:1001A0000C949B060C940000CF93DF9300D01F9219
:1001B000CDB7DEB789837B836A8389818A3031F446
:1001C0008A819B81BC018DE00E94D40080EC90E08C
:1001D000FC018081882F90E080729927892BB1F3F0
:1001E00086EC90E02981FC01208380E090E00F9074
:1001F0000F900F90DF91CF910895CF93DF9300D0B0
:1002000000D0CDB7DEB769837A838B839C838981E5
:100210009A81AB81BC8180930E0190930F01A093D2
:100220001001B093110180910E0190910F01A091E6
:100230001001B09111018093130190931401A093C8
:100240001501B093160100000F900F900F900F90C2
:10025000DF91CF910895CF93DF93CDB7DEB781E8DB
:1002600090E02BE0FC01208388E890E02DE730E06F
:10027000FC01318320838FE690E022E0FC012083A3
:1002800084E890E0FC011182108280910E0190912F
:100290000F01A0911001B09111018093130190936F
:1002A0001401A0931501B09316018FE590E02FE59E
:1002B00030E0F90120812068FC0120830000DF91FB
:1002C000CF910895CF93DF93CDB7DEB781E890E06B
:1002D000FC0110820000DF91CF910895CF93DF934E
:1002E000CDB7DEB781E0809312010000DF91CF919E
:1002F00008951F920F9200905F000F9211240090BA
:100300005B000F922F933F934F935F936F937F9375
:100310008F939F93AF93BF93EF93FF93CF93DF930D
:10032000CDB7DEB78091130190911401A091150112
:10033000B09116010197A109B1098093130190931F
:100340001401A0931501B0931601809113019091AF
:100350001401A0911501B0911601892B8A2B8B2BCA
:1003600091F40E946E0180910E0190910F01A09175
:100370001001B09111018093130190931401A09387
:100380001501B09316010000DF91CF91FF91EF911D
:10039000BF91AF919F918F917F916F915F914F919D
:1003A0003F912F910F9000925B000F9000925F00A1
:1003B0000F901F901895CF93DF9300D01F92CDB769
:1003C000DEB789836A834B838B81882371F08A81AE
:1003D000282F30E081E090E002C0880F991F2A9515
:1003E000E2F7982F8981892B0EC08A81282F30E06F
:1003F00081E090E002C0880F991F2A95E2F7982FBC
:100400009095898189230F900F900F90DF91CF9164
:100410000895CF93DF9300D0CDB7DEB789836A8389
:100420008A81282F30E081E090E002C0880F991F78
:100430002A95E2F7982F898189230F900F90DF91F9
:10044000CF9108950F931F93CF93DF93CDB7DEB76E
:1004500008E210E040E064E08FEF0E94DB01F80169
:100460008083000086E290E0FC01808160E00E94D1
:100470000902882311F481E3C4C086E290E0FC0104
:10048000808161E00E940902882311F484E3B9C0ED
:1004900086E290E0FC01808162E00E9409028823EC
:1004A00011F487E3AEC086E290E0FC01808163E056
:1004B0000E940902882311F48AE2A3C008E210E036
:1004C00040E065E08FEF0E94DB01F80180830000CF
:1004D00086E290E0FC01808160E00E9409028823AE
:1004E00011F482E38EC086E290E0FC01808161E03D
:1004F0000E940902882311F485E383C086E290E01C
:10050000FC01808162E00E940902882311F488E3E3
:1005100078C086E290E0FC01808163E00E940902DD
:10052000882311F480E36DC008E210E040E066E04B
:100530008FEF0E94DB01F8018083000086E290E0EB
:10054000FC01808160E00E940902882311F483E3AA
:1005500058C086E290E0FC01808161E00E940902BF
:10056000882311F486E34DC086E290E0FC0180818F
:1005700062E00E940902882311F489E342C086E206
:1005800090E0FC01808163E00E940902882311F45D
:1005900083E237C008E210E040E067E08FEF0E949E
:1005A000DB01F8018083000086E290E0FC0180819D
:1005B00060E00E940902882311F481E422C086E2EF
:1005C00090E0FC01808161E00E940902882311F41F
:1005D00082E417C086E290E0FC01808162E00E9424
:1005E0000902882311F483E40CC086E290E0FC0148
:1005F000808163E00E940902882311F484E401C031
:1006000080E0DF91CF911F910F910895CF93DF93F9
:10061000CDB7DEB72C970FB6F894DEBF0FBECDBFB7
:100620006D837E838F83988729873A874B875C8782
:100630008D819E81AF81B88529853A854B855C8502
:10064000BC01CD010E947006DC01CB0189839A8335
:10065000AB83BC8389819A81AB81BC81892B8A2B36
:100660008B2B29F489859A85AB85BC8511C089853A
:100670009A85AB85BC858D839E83AF83B88789813E
:100680009A81AB81BC8189879A87AB87BC87D0CFA1
:10069000BC01CD012C960FB6F894DEBF0FBECDBFC6
:1006A000DF91CF910895CF93DF9300D01F92CDB704
:1006B000DEB79B838A830E94220289838A819B8181
:1006C000892B19F41B821A8203C01B821A82000034
:1006D0008A819B81892B09F05EC08981882F90E0F7
:1006E000092E000CAA0BBB0B40E050E024E430E0E4
:1006F000841B950B2817390708F448C08A5B9F4F65
:10070000FC010C9492068FE18093170143C081E0B5
:10071000809317013FC082E0809317013BC083E0C4
:100720008093170137C084E08093170133C085E0C0
:10073000809317012FC086E0809317012BC087E0BC
:100740008093170127C088E08093170123C089E0B8
:10075000809317011FC08AE0809317011BC08BE0B4
:100760008093170117C08CE08093170113C08DE0B0
:10077000809317010FC08EE0809317010BC0109279
:10078000170108C08FE08093170104C08BE18093AC
:100790001701000000008A819B810F900F900F903D
:1007A000DF91CF910895CF93DF9300D01F92CDB703
:1007B000DEB79B838A8383E290E0FC018081809591
:1007C000807889838A819B81092E000CAA0BBB0B40
:1007D00040E050E023E130E0841B950B28173907F7
:1007E00008F4EDC085579F4FFC010C949206909140
:1007F000170181E09F3009F080E0882F90E09B8313
:100800008A83E0C082E090E09B838A83DBC0809192
:1008100017018F3019F481E090E002C083E090E08E
:100820009B838A83CFC0809117018F3129F483E0A5
:1008300090E09B838A83C6C080911701813029F4A0
:1008400084E090E09B838A83BDC01B821A82BAC079
:1008500085E090E09B838A83B5C080911701813049
:1008600019F484E090E002C086E090E09B838A83E4
:10087000A9C0809117018F3129F486E090E09B8315
:100880008A83A0C080911701823029F487E090E02C
:100890009B838A8397C01B821A8294C088E090E071
:1008A0009B838A838FC080911701823019F487E07F
:1008B00090E002C089E090E09B838A8383C08091AE
:1008C00017018F3129F489E090E09B838A837AC0F5
:1008D00080911701833029F48AE090E09B838A831A
:1008E00071C01B821A826EC08BE090E09B838A836A
:1008F00069C080911701833019F48AE090E002C04A
:100900008CE090E09B838A835DC0809117018F31DA
:1009100029F48CE090E09B838A8354C08091170176
:10092000843029F48DE090E09B838A834BC01B8246
:100930001A8248C08EE090E09B838A8343C08091F6
:100940001701843019F48DE090E002C08FE090E050
:100950009B838A8337C0809117018F3129F48FE000
:1009600090E09B838A832EC080911701853029F403
:1009700080E190E09B838A8325C01B821A8222C07B
:1009800081E190E09B838A831DC0809117018530AF
:1009900019F480E190E002C082E190E09B838A83B9
:1009A00011C08981882319F083E190E002C082E1BF
:1009B00090E09B838A8306C01B821A8203C01B823D
:1009C0001A8200008A819B81092E000CAA0BBB0BA6
:1009D00040E050E023E130E0841B950B28173907F5
:1009E000A8F181569F4FFC010C94920680E48093FD
:1009F00019012FC0109219012CC080E480931901B5
:100A000028C01092190125C080E48093190121C0EB
:100A1000109219011EC080E4809319011AC010922F
:100A2000190117C080E48093190113C010921901B5
:100A300010C080E4809319010CC01092190181E06C
:100A40008093180106C01092180103C0000001C075
:100A500000008A819B810F900F900F90DF91CF91C2
:100A600008950F931F93CF93DF93CDB7DEB72997E8
:100A70000FB6F894DEBF0FBECDBF81E290E0FC015F
:100A8000108282E290E02FEFFC01208384E290E06C
:100A90002FE7FC01208385E290E0FC01108287E2D1
:100AA00090E020EFFC01208388E290E02FE0FC0141
:100AB00020838AE191E09F838E8385E291E099878C
:100AC000888782E090E09C838B838FEF8D838D817C
:100AD00080931A0181E090E0A0E0B0E080931B01D8
:100AE00090931C01A0931D01B0931E0180911B01E6
:100AF00090911C01A0911D01B0911E0180931F01D6
:100B000090932001A0932101B093220183E593E00B
:100B100090932401809323018D818093250181E0AE
:100B200090E0A0E0B0E08093260190932701A0938D
:100B30002801B09329018091260190912701A0916D
:100B40002801B091290180932A0190932B01A09351
:100B50002C01B0932D0183ED93E090932F018093AE
:100B60002E0161E070E080E090E00E94FD000E94B4
:100B70002B011A8219829BC089819A81880F991F43
:100B80009E012F5F3F4F820F931F0596FC018081CE
:100B90009181FC01258136814781508589819A8127
:100BA000880F991FBE016F5F7F4F860F971F0596B5
:100BB000FC0180819181FC0181819281A381B481BA
:100BC000281739074A075B0709F045C089819A81D0
:100BD000880F991F9E012F5F3F4F820F931F05962D
:100BE000FC010081118189819A81880F991F9E01E2
:100BF0002F5F3F4F820F931F0596FC0180819181EB
:100C0000FC012185328589819A81880F991FAE0167
:100C10004F5F5F4F840F951F0596FC018081918186
:100C2000FC018081082E000C990BF9010995F8014F
:100C3000808389819A81880F991F9E012F5F3F4F82
:100C4000820F931F0596FC0180819181FC01158222
:100C500016821782108689819A81880F991F9E01BA
:100C60002F5F3F4F820F931F0596FC01208131813A
:100C700089819A81880F991FAE014F5F5F4F840F62
:100C8000951F0596FC0180819181FC0185819681EB
:100C9000A781B0850196A11DB11DF90185839683B9
:100CA000A783B08789819A8101969A838983298154
:100CB0003A818B819C812817390708F45DCF85E242
:100CC00090E03091190120911801232BFC01208321
:100CD00002C010921201809112018823D1F349CFF2
:100CE000A1E21A2EAA1BBB1BFD010DC0AA1FBB1F30
:100CF000EE1FFF1FA217B307E407F50720F0A21BA2
:100D0000B30BE40BF50B661F771F881F991F1A940E
:100D100069F760957095809590959B01AC01BD0138
:100D2000CF010895EE0FFF1F0024001C0BBE07909B
:0A0D3000F691E02D0994F894FFCF2E
:100D3A000000000200000000D400000000000100D2
:020D4A000000A7
:00000001FF
