:100000000C94B3000C94D2000C94D2000C94D20047
:100010000C94D2000C94D2000C94D2000C94D20018
:100020000C94D2000C94D2000C94D2000C94D20008
:100030000C94D2000C9479010C94D2000C94D20050
:100040000C94D2000C94D2000C94D2000C94D200E8
:100050000C94D2000C94D2000C94D2000C94D200D8
:100060000C94D2000C94D2000C94D2000C94D200C8
:100070000C94D2000C94D2000C94D2000C94D200B8
:100080000C94D2000C94D2000C94D2004A04BC040C
:10009000BC04BC04BC04BC04BC04BC04BC04BC0460
:1000A000BC04BC04BC04BC04BC04BC04BC04BC0450
:1000B000BC04BC04BC04BC04BC04BC04BC04BC0440
:1000C000BC04BC04BC04BC04BC04BC04BC04BC0430
:1000D000BC04B504BC04BC04BC04BC04BC04BC0427
:1000E000AB04BC04BC04BC04BC04BC04AF0450049A
:1000F00057045E0465046C0473047A048104880464
:10010000BC04BC04BC04BC04BC04BC04BC048F041C
:1001100096049D04A404EF04FA04FF040B052005D3
:100120002505310546054B0557056C0571057D050F
:1001300092059705A305B805BD05C905D405200698
:10014000EE05F2052006F505F9052006FC0500067A
:1001500020060306070620060A060E0620061106DC
:10016000150620061B0611241FBECFEFD0E4DEBF0C
:10017000CDBF11E0A0E0B1E0E2E1F5E100E00BBFAE
:1001800002C007900D92A23AB107D9F721E0A2EA86
:10019000B1E001C01D92A23EB207E1F70E94300714
:1001A0000C94870A0C940000CF93DF9300D01F9229
:1001B000CDB7DEB789837B836A8389818A3031F446
:1001C0008A819B81BC018DE00E94D40080EC90E08C
:1001D000FC018081882F90E080729927892BB1F3F0
:1001E00086EC90E02981FC01208380E090E00F9074
:1001F0000F900F90DF91CF910895CF93DF9300D0B0
:1002000000D0CDB7DEB769837A838B839C838981E5
:100210009A81AB81BC8180930E0190930F01A093D2
:100220001001B093110180910E0190910F01A091E6
:100230001001B09111018093A3019093A401A093A8
:10024000A501B093A60100000F900F900F900F90A2
:10025000DF91CF910895CF93DF93CDB7DEB781E8DB
:1002600090E02BE0FC01208388E890E02DE730E06F
:10027000FC01318320838FE690E022E0FC012083A3
:1002800084E890E0FC011182108280910E0190912F
:100290000F01A0911001B09111018093A3019093DF
:1002A000A401A093A501B093A6018FE590E02FE5EE
:1002B00030E0F90120812068FC0120830000DF91FB
:1002C000CF910895CF93DF93CDB7DEB781E890E06B
:1002D000FC0110820000DF91CF910895CF93DF934E
:1002E000CDB7DEB781E08093A2010000DF91CF910E
:1002F00008951F920F9200905F000F9211240090BA
:100300005B000F922F933F934F935F936F937F9375
:100310008F939F93AF93BF93EF93FF93CF93DF930D
:10032000CDB7DEB78091A3019091A401A091A50162
:10033000B091A6010197A109B1098093A3019093FF
:10034000A401A093A501B093A6018091A30190916F
:10035000A401A091A501B091A601892B8A2B8B2B1A
:1003600091F40E946E0180910E0190910F01A09175
:100370001001B09111018093A3019093A401A09367
:10038000A501B093A6010000DF91CF91FF91EF91FD
:10039000BF91AF919F918F917F916F915F914F919D
:1003A0003F912F910F9000925B000F9000925F00A1
:1003B0000F901F901895CF93DF9300D01F92CDB769
:1003C000DEB789836A834B838B81882371F08A81AE
:1003D000282F30E081E090E002C0880F991F2A9515
:1003E000E2F7982F8981892B0EC08A81282F30E06F
:1003F00081E090E002C0880F991F2A95E2F7982FBC
:100400009095898189230F900F900F90DF91CF9164
:100410000895CF93DF9300D0CDB7DEB789836A8389
:100420008A81282F30E081E090E002C0880F991F78
:100430002A95E2F7982F898189230F900F90DF91F9
:10044000CF9108950F931F93CF93DF93CDB7DEB76E
:1004500008E210E040E064E08FEF0E94DB01F80169
:100460008083000086E290E0FC01808160E00E94D1
:100470000902882311F481E3C4C086E290E0FC0104
:10048000808161E00E940902882311F484E3B9C0ED
:1004900086E290E0FC01808162E00E9409028823EC
:1004A00011F487E3AEC086E290E0FC01808163E056
:1004B0000E940902882311F48AE2A3C008E210E036
:1004C00040E065E08FEF0E94DB01F80180830000CF
:1004D00086E290E0FC01808160E00E9409028823AE
:1004E00011F482E38EC086E290E0FC01808161E03D
:1004F0000E940902882311F485E383C086E290E01C
:10050000FC01808162E00E940902882311F488E3E3
:1005100078C086E290E0FC01808163E00E940902DD
:10052000882311F480E36DC008E210E040E066E04B
:100530008FEF0E94DB01F8018083000086E290E0EB
:10054000FC01808160E00E940902882311F483E3AA
:1005500058C086E290E0FC01808161E00E940902BF
:10056000882311F486E34DC086E290E0FC0180818F
:1005700062E00E940902882311F489E342C086E206
:1005800090E0FC01808163E00E940902882311F45D
:1005900083E237C008E210E040E067E08FEF0E949E
:1005A000DB01F8018083000086E290E0FC0180819D
:1005B00060E00E940902882311F481E422C086E2EF
:1005C00090E0FC01808161E00E940902882311F41F
:1005D00082E417C086E290E0FC01808162E00E9424
:1005E0000902882311F483E40CC086E290E0FC0148
:1005F000808163E00E940902882311F484E401C031
:1006000080E0DF91CF911F910F910895CF93DF93F9
:10061000CDB7DEB72C970FB6F894DEBF0FBECDBFB7
:100620006D837E838F83988729873A874B875C8782
:100630008D819E81AF81B88529853A854B855C8502
:10064000BC01CD010E94C808DC01CB0189839A83DB
:10065000AB83BC8389819A81AB81BC81892B8A2B36
:100660008B2B29F489859A85AB85BC8511C089853A
:100670009A85AB85BC858D839E83AF83B88789813E
:100680009A81AB81BC8189879A87AB87BC87D0CFA1
:10069000BC01CD012C960FB6F894DEBF0FBECDBFC6
:1006A000DF91CF9108950F931F93CF93DF9300D0E5
:1006B00000D0CDB7DEB769837A838B839C8380912A
:1006C000AE019091AF01A091B001B091B1019C0138
:1006D000AD0169817A818B819C810E94F308882316
:1006E00009F477C020E030E0A90169817A818B812B
:1006F0009C810E94F308882351F481E990E021E96C
:1007000030E0F90120812870FC01208309C081E9D3
:1007100090E021E930E0F90120812360FC01208391
:1007200028E539E344E75FE369817A818B819C8125
:100730000E94F308882344F488E990E02FEF3FEF0C
:10074000FC013183208334C020E034E244EF56E4DE
:1007500069817A818B819C810E94150A181634F474
:1007600088E990E0FC011182108222C008E910E0C3
:1007700020E030E040E053E469817A818B819C8104
:100780000E941A0ADC01CB019C01AD0160E074E219
:1007900084EF9AE40E94F808DC01CB01BC01CD0192
:1007A0000E946A09DC01CB010197F80191838083E3
:1007B00084E990E0FC011182108289819A81AB81E9
:1007C000BC818093AE019093AF01A093B001B09330
:1007D000B10100000F900F900F900F90DF91CF911B
:1007E0001F910F910895CF93DF93CDB7DEB780E9C6
:1007F00090E020E4FC01208381E990E02BE0FC0103
:10080000208360E070E0CB010E9453030000DF9181
:10081000CF910895CF93DF93CDB7DEB780E990E015
:10082000FC01108281E990E0FC0110820000DF9160
:10083000CF910895CF93DF9300D01F92CDB7DEB74D
:100840009B838A830E94220289838A819B81892BD0
:1008500019F41B821A8203C01B821A8200008A814B
:100860009B81892B09F08FC08981882F90E0092E08
:10087000000CAA0BBB0B40E050E024E430E0841BEA
:10088000950B2817390708F477C08A5B9F4FFC0146
:100890000C94EA088FE18093A7011092A90172C01D
:1008A00081E08093A70180E88093A9016BC082E07A
:1008B0008093A70180E88093A90164C083E08093BE
:1008C000A70180E88093A9015DC084E08093A7011F
:1008D00080E88093A90156C085E08093A70180E855
:1008E0008093A9014FC086E08093A70180E88093A0
:1008F000A90148C087E08093A70180E88093A901FF
:1009000041C088E08093A70180E88093A9013AC0A4
:1009100089E08093A70180E88093A90133C08AE031
:100920008093A70180E88093A9012CC08BE080937D
:10093000A70180E88093A90125C08CE08093A701DE
:1009400080E88093A9011EC08DE08093A70180E814
:100950008093A90117C08EE08093A70113C0109265
:10096000A70180E88093A9010DC08FE08093A701C3
:1009700080E88093A90106C08BE18093A7011092C3
:10098000A901000000008A819B810F900F900F90B9
:10099000DF91CF910895CF93DF9300D01F92CDB711
:1009A000DEB79B838A8383E290E0FC01808180959F
:1009B000807889838A819B81092E000CAA0BBB0B4E
:1009C00040E050E023E130E0841B950B2817390705
:1009D00008F4EDC085579F4FFC010C94EA089091F4
:1009E000A70181E09F3009F080E0882F90E09B8391
:1009F0008A83E0C082E090E09B838A83DBC08091A1
:100A0000A7018F3019F481E090E002C083E090E00C
:100A10009B838A83CFC08091A7018F3129F483E023
:100A200090E09B838A83C6C08091A701813029F41E
:100A300084E090E09B838A83BDC01B821A82BAC087
:100A400085E090E09B838A83B5C08091A7018130C7
:100A500019F484E090E002C086E090E09B838A83F2
:100A6000A9C08091A7018F3129F486E090E09B8393
:100A70008A83A0C08091A701823029F487E090E0AA
:100A80009B838A8397C01B821A8294C088E090E07F
:100A90009B838A838FC08091A701823019F487E0FD
:100AA00090E002C089E090E09B838A8383C08091BC
:100AB000A7018F3129F489E090E09B838A837AC073
:100AC0008091A701833029F48AE090E09B838A8398
:100AD00071C01B821A826EC08BE090E09B838A8378
:100AE00069C08091A701833019F48AE090E002C0C8
:100AF0008CE090E09B838A835DC08091A7018F3159
:100B000029F48CE090E09B838A8354C08091A701F4
:100B1000843029F48DE090E09B838A834BC01B8254
:100B20001A8248C08EE090E09B838A8343C0809104
:100B3000A701843019F48DE090E002C08FE090E0CE
:100B40009B838A8337C08091A7018F3129F48FE07E
:100B500090E09B838A832EC08091A701853029F481
:100B600080E190E09B838A8325C01B821A8222C089
:100B700081E190E09B838A831DC08091A70185302D
:100B800019F480E190E002C082E190E09B838A83C7
:100B900011C08981882319F083E190E002C082E1CD
:100BA00090E09B838A8306C01B821A8203C01B824B
:100BB0001A8200008A819B81092E000CAA0BBB0BB4
:100BC00040E050E023E130E0841B950B2817390703
:100BD000A8F181569F4FFC010C94EA0880E88093AD
:100BE000A9012FC01092A9012CC080E88093A9010F
:100BF00028C01092A90125C080E88093A90121C0D6
:100C00001092A9011EC080E88093A9011AC0109219
:100C1000A90117C080E88093A90113C01092A9010F
:100C200010C080E88093A9010CC01092A90181E056
:100C30008093A80106C01092A80103C0000001C063
:100C400000008A819B810F900F900F90DF91CF91D0
:100C50000895CF93DF9300D01F92CDB7DEB79B836B
:100C60008A8380E290E0FC018081882F90E081708F
:100C7000992721E0892B09F020E029838A819B8133
:100C80008330910591F08430910509F444C0892B9B
:100C900009F04CC08981882329F083E090E09B8390
:100CA0008A8348C01B821A8245C083E090E09B8300
:100CB0008A838091AB019091AC019C0140E050E0AF
:100CC0008091AA01882F90E0880F991F880F991FA3
:100CD0008A5A9E4FFC0180819181A281B38128179D
:100CE00039074A075B0728F483E090E09B838A83F7
:100CF00009C08091AA018F5F8093AA011092AC0174
:100D00001092AB018091AA01813198F084E090E0CB
:100D10009B838A830EC08981882319F084E090E048
:100D200002C080E090E09B838A8304C01B821A8209
:100D300001C000008A819B818330910579F0843065
:100D4000910549F1892B09F029C00E94F303109203
:100D5000AA011092AC011092AB0120C08091AA01AF
:100D6000882F90E0880F991F880F991F8E5E9E4FE5
:100D7000FC0180819181A281B381BC01CD010E94DF
:100D800053038091AB019091AC01C2969093AC015A
:100D90008093AB0103C00E940A0400008A819B81FA
:100DA0000F900F900F90DF91CF910895CF93DF9325
:100DB00000D01F92CDB7DEB79B838A8383E290E099
:100DC000FC0180818095807889838A819B81813034
:100DD0009105A1F082309105B1F0892B19F5809130
:100DE000A7018E3031F48981882319F081E090E0E9
:100DF00002C080E090E09B838A8317C082E090E08D
:100E00009B838A8312C08091A7018E3019F4898157
:100E1000882319F480E090E002C082E090E09B8398
:100E20008A8303C01B821A8200008A819B818130E1
:100E3000910549F08230910551F0892B09F008C0E5
:100E40001092A90105C080E88093A90101C00000AB
:100E50008A819B810F900F900F90DF91CF91089521
:100E60000F931F93CF93DF93CDB7DEB72D970FB6B8
:100E7000F894DEBF0FBECDBF81E290E0FC0110828E
:100E800082E290E02FEFFC01208384E290E02FE7E4
:100E9000FC01208385E290E0FC01108287E290E073
:100EA00020EFFC01208388E290E02FE0FC0120830A
:100EB0008AE290E02FEFFC0120838BE290E0FC01BE
:100EC000108288E0EAE9F1E0DE01169601900D92C9
:100ED0008A95E1F784E090E09C838B838FEF8D838C
:100EE0008D818093B20181E090E0A0E0B0E080933A
:100EF000B3019093B401A093B501B093B601809172
:100F0000B3019091B401A091B501B091B601809365
:100F1000B7019093B801A093B901B093BA018AE1E7
:100F200094E09093BC018093BB018D818093BD01BF
:100F300081E090E0A0E0B0E08093BE019093BF011B
:100F4000A093C001B093C1018091BE019091BF01F7
:100F5000A091C001B091C1018093C2019093C301DF
:100F6000A093C401B093C5018BEC94E09093C701AA
:100F70008093C6018D818093C80188EC90E0A0E049
:100F8000B0E08093C9019093CA01A093CB01B093C4
:100F9000CC018091C9019091CA01A091CB01B0917F
:100FA000CC018093CD019093CE01A093CF01B0935B
:100FB000D00189E296E09093D2018093D1018D8196
:100FC0008093D30181E090E0A0E0B0E08093D40171
:100FD0009093D501A093D601B093D7018091D4010D
:100FE0009091D501A091D601B091D7018093D801FD
:100FF0009093D901A093DA01B093DB0186ED96E0DE
:101000009093DD018093DC0161E070E080E090E08E
:101010000E94FD000E942B010E94F3031A82198294
:101020009BC089819A81880F991F9E012F5F3F4F36
:10103000820F931F0596FC0180819181FC0125811F
:1010400036814781508589819A81880F991FBE0119
:101050006F5F7F4F860F971F0596FC0180819181FE
:10106000FC0181819281A381B481281739074A0745
:101070005B0709F045C089819A81880F991F9E01FD
:101080002F5F3F4F820F931F0596FC010081118156
:1010900089819A81880F991F9E012F5F3F4F820F90
:1010A000931F0596FC0180819181FC012185328589
:1010B00089819A81880F991FAE014F5F5F4F840F1E
:1010C000951F0596FC0180819181FC018081082E8D
:1010D000000C990BF9010995F801808389819A81A7
:1010E000880F991F9E012F5F3F4F820F931F059618
:1010F000FC0180819181FC01158216821782108685
:1011000089819A81880F991F9E012F5F3F4F820F1F
:10111000931F0596FC012081318189819A81880F76
:10112000991FAE014F5F5F4F840F951F0596FC011D
:1011300080819181FC0185819681A781B08501968E
:10114000A11DB11DF90185839683A783B08789818D
:101150009A8101969A83898329813A818B819C8126
:101160002817390708F45DCF85E290E02091A801A7
:10117000FC0120838BE290E02091A901FC012083F7
:1011800002C01092A2018091A2018823D1F346CF20
:10119000A1E21A2EAA1BBB1BFD010DC0AA1FBB1F7B
:1011A000EE1FFF1FA217B307E407F50720F0A21BED
:1011B000B30BE40BF50B661F771F881F991F1A945A
:1011C00069F760957095809590959B01AC01BD0184
:1011D000CF010895EE0FFF1F0024001C0BBE0790E7
:1011E000F691E02D09940E94A00908F481E0089589
:1011F0000E940C090C94DB090E94D40958F00E944B
:10120000CD0940F029F45F3F29F00C94C409511135
:101210000C940F0A0C94CA090E94EC0968F39923F4
:10122000B1F3552391F3951B550BBB27AA276217E2
:101230007307840738F09F5F5F4F220F331F441FEF
:10124000AA1FA9F335D00E2E3AF0E0E832D0915023
:101250005040E695001CCAF72BD0FE2F29D0660F10
:10126000771F881FBB1F261737074807AB07B0E853
:1012700009F0BB0B802DBF01FF2793585F4F3AF059
:101280009E3F510578F00C94C4090C940F0A5F3FFF
:10129000E4F3983ED4F3869577956795B795F795DF
:1012A0009F5FC9F7880F911D9695879597F90895C7
:1012B000E1E0660F771F881FBB1F62177307840763
:1012C000BA0720F0621B730B840BBA0BEE1F88F772
:1012D000E09508950E9471096894B1110C940F0A69
:1012E00008950E94F40988F09F5798F0B92F992724
:1012F000B751B0F0E1F0660F771F881F991F1AF001
:10130000BA95C9F714C0B13091F00E940E0AB1E04D
:1013100008950C940E0A672F782F8827B85F39F04C
:10132000B93FCCF3869577956795B395D9F73EF499
:1013300090958095709561957F4F8F4F9F4F089541
:10134000990F0008550FAA0BE0E8FEEF16161706D6
:10135000E807F907C0F012161306E407F50798F03E
:10136000621B730B840B950B39F40A2661F0232B57
:10137000242B252B21F408950A2609F4A140A695D3
:101380008FEF811D811D089597F99F6780E870E0B8
:1013900060E008959FEF80EC089500240A941616EB
:1013A000170618060906089500240A941216130653
:1013B000140605060895092E0394000C11F48823E1
:1013C00052F0BB0F40F4BF2B11F460FF04C06F5FFD
:1013D0007F4F8F4F9F4F089557FD9058440F551FD3
:1013E00059F05F3F71F04795880F97FB991F61F0A7
:1013F0009F3F79F087950895121613061406551F1E
:10140000F2CF4695F1DF08C0161617061806991F89
:10141000F1CF86957105610508940895E894BB277E
:1014200066277727CB0197F908950E94A00908F451
:101430008FEF08950E942D0A0C94DB090E94CD09BC
:1014400038F00E94D40920F0952311F00C94C409BF
:101450000C94CA0911240C940F0A0E94EC0970F331
:10146000959FC1F3950F50E0551F629FF001729F49
:10147000BB27F00DB11D639FAA27F00DB11DAA1F58
:10148000649F6627B00DA11D661F829F2227B00DA5
:10149000A11D621F739FB00DA11D621F839FA00D30
:1014A000611D221F749F3327A00D611D231F849F80
:1014B000600D211D822F762F6A2F11249F575040D7
:1014C0009AF0F1F088234AF0EE0FFF1FBB1F661F52
:1014D000771F881F91505040A9F79E3F510580F01B
:1014E0000C94C4090C940F0A5F3FE4F3983ED4F3C4
:1014F000869577956795B795F795E7959F5FC1F7BF
:10150000FE2B880F911D9695879597F90895F8946D
:02151000FFCF0B
:101512000000000200000000D400000000000100F2
:1015220000000000DC43000000000000DC4300007B
:1015320000000000DC4300000000719DAE4300008B
:10154200000000D00244000000000000DC43000064
:101552000000719DAE430000000000D00244000074
:1015620000000000DC43F401000032000000F4013E
:10157200000032000000F401000032000000FA0016
:101582000000320000009600000032000000F4016A
:10159200000032000000FA00000032000000960055
:1015A200000032000000EE020000B201BD01C801DD
:0215B200D30163
:00000001FF
