:100000000C948B000C94AA000C94AA000C94AA00E7
:100010000C94AA000C94AA000C94AA000C94AA00B8
:100020000C94AA000C94AA000C94AA000C94AA00A8
:100030000C94AA000C9451010C94AA000C94AA00F0
:100040000C94AA000C94AA000C94AA000C94AA0088
:100050000C94AA000C94AA000C94AA000C94AA0078
:100060000C94AA000C94AA000C94AA000C94AA0068
:100070000C94AA000C94AA000C94AA000C94AA0058
:100080000C94AA000C94AA000C94AA005C03C00370
:10009000C003C003C003C003C003C003C003C00348
:1000A000C003C003C003C003C003C003C003C00338
:1000B000C003C003C003C003C003C003C003C00328
:1000C000C003C003C003C003C003C003C003C00318
:1000D000C003BA03C003C003C003C003C003C0030E
:1000E000AF03C003C003C003C003C003B503610373
:1000F00067036D03730379037F0385038B03910308
:10010000C003C003C003C003C003C003C003970300
:100110009D03A303A90311241FBECFEFD0E4DEBFCC
:10012000CDBF11E0A0E0B1E0E0E2FAE000E00BBFFB
:1001300002C007900D92A231B107D9F721E0A2E1E8
:10014000B1E001C01D92A332B207E1F70E94D603CD
:100150000C940E050C940000CF93DF9300D01F92F7
:10016000CDB7DEB789837B836A8389818A3031F496
:100170008A819B81BC018DE00E94AC0080EC90E004
:10018000FC018081882F90E080729927892BB1F340
:1001900086EC90E02981FC01208380E090E00F90C4
:1001A0000F900F90DF91CF910895CF93DF9300D000
:1001B00000D0CDB7DEB769837A838B839C83898136
:1001C0009A81AB81BC8180930E0190930F01A09323
:1001D0001001B093110180910E0190910F01A09137
:1001E0001001B09111018093130190931401A09319
:1001F0001501B093160100000F900F900F900F9013
:10020000DF91CF910895CF93DF93CDB7DEB781E82B
:1002100090E02BE0FC01208388E890E02DE730E0BF
:10022000FC01318320838FE690E022E0FC012083F3
:1002300084E890E0FC011182108280910E0190917F
:100240000F01A0911001B0911101809313019093BF
:100250001401A0931501B09316018FE590E02FE5EE
:1002600030E0F90120812068FC0120830000DF914B
:10027000CF910895CF93DF93CDB7DEB781E890E0BB
:10028000FC0110820000DF91CF910895CF93DF939E
:10029000CDB7DEB781E0809312010000DF91CF91EE
:1002A00008951F920F9200905F000F92112400900A
:1002B0005B000F922F933F934F935F936F937F93C6
:1002C0008F939F93AF93BF93EF93FF93CF93DF935E
:1002D000CDB7DEB78091130190911401A091150163
:1002E000B09116010197A109B10980931301909370
:1002F0001401A0931501B093160180911301909100
:100300001401A0911501B0911601892B8A2B8B2B1A
:1003100091F40E94460180910E0190910F01A091ED
:100320001001B09111018093130190931401A093D7
:100330001501B09316010000DF91CF91FF91EF916D
:10034000BF91AF919F918F917F916F915F914F91ED
:100350003F912F910F9000925B000F9000925F00F1
:100360000F901F901895CF93DF9300D01F92CDB7B9
:10037000DEB789836A834B838B81882371F08A81FE
:10038000282F30E081E090E002C0880F991F2A9565
:10039000E2F7982F8981892B0EC08A81282F30E0BF
:1003A00081E090E002C0880F991F2A95E2F7982F0C
:1003B0009095898189230F900F900F90DF91CF91B5
:1003C0000895CF93DF9300D0CDB7DEB789836A83DA
:1003D0008A81282F30E081E090E002C0880F991FC9
:1003E0002A95E2F7982F898189230F900F90DF914A
:1003F000CF9108950F931F93CF93DF93CDB7DEB7BF
:1004000008E210E040E064E08FEF0E94B301F801E1
:100410008083000086E290E0FC01808160E00E9421
:10042000E101882311F481E3C4C086E290E0FC017D
:10043000808161E00E94E101882311F484E3B9C066
:1004400086E290E0FC01808162E00E94E101882365
:1004500011F487E3AEC086E290E0FC01808163E0A6
:100460000E94E101882311F48AE2A3C008E210E0AF
:1004700040E065E08FEF0E94B301F8018083000047
:1004800086E290E0FC01808160E00E94E101882327
:1004900011F482E38EC086E290E0FC01808161E08D
:1004A0000E94E101882311F485E383C086E290E095
:1004B000FC01808162E00E94E101882311F488E35D
:1004C00078C086E290E0FC01808163E00E94E10157
:1004D000882311F480E36DC008E210E040E066E09C
:1004E0008FEF0E94B301F8018083000086E290E064
:1004F000FC01808160E00E94E101882311F483E324
:1005000058C086E290E0FC01808161E00E94E10138
:10051000882311F486E34DC086E290E0FC018081DF
:1005200062E00E94E101882311F489E342C086E27F
:1005300090E0FC01808163E00E94E101882311F4D6
:1005400083E237C008E210E040E067E08FEF0E94EE
:10055000B301F8018083000086E290E0FC01808115
:1005600060E00E94E101882311F481E422C086E268
:1005700090E0FC01808161E00E94E101882311F498
:1005800082E417C086E290E0FC01808162E00E9474
:10059000E101882311F483E40CC086E290E0FC01C1
:1005A000808163E00E94E101882311F484E401C0AA
:1005B00080E0DF91CF911F910F910895CF93DF934A
:1005C000CDB7DEB72C970FB6F894DEBF0FBECDBF08
:1005D0006D837E838F83988729873A874B875C87D3
:1005E0008D819E81AF81B88529853A854B855C8553
:1005F000BC01CD010E94E304DC01CB0189839A8315
:10060000AB83BC8389819A81AB81BC81892B8A2B86
:100610008B2B29F489859A85AB85BC8511C089858A
:100620009A85AB85BC858D839E83AF83B88789818E
:100630009A81AB81BC8189879A87AB87BC87D0CFF1
:10064000BC01CD012C960FB6F894DEBF0FBECDBF16
:10065000DF91CF910895CF93DF9300D000D0CDB735
:10066000DEB79C838B830E94FA018A8319828B8177
:100670009C81892B19F41C821B8203C01C821B8263
:1006800000008B819C81892B09F087C08A81882F8B
:1006900090E0092E000CAA0BBB0B40E050E024E4D4
:1006A00030E0841B950B2817390708F469C08A5B72
:1006B0009F4FFC010C9405058FE18093170119826F
:1006C00063C081E08093170180E889835DC082E088
:1006D0008093170180E8898357C083E080931701D6
:1006E00080E8898351C084E08093170180E8898382
:1006F0004BC085E08093170180E8898345C086E080
:100700008093170180E889833FC087E080931701B9
:1007100080E8898339C088E08093170180E8898365
:1007200033C089E08093170180E889832DC08AE077
:100730008093170180E8898327C08BE0809317019D
:1007400080E8898321C08CE08093170180E8898349
:100750001BC08DE08093170180E8898315C08EE06F
:100760008093170180E889830FC01092170180E8F9
:1007700089830AC08FE08093170180E8898304C0D1
:100780008BE180931701000085E290E03091170122
:100790002981232BFC01208300008B819C810F90F9
:1007A0000F900F900F90DF91CF9108950F931F93AB
:1007B000CF93DF93CDB7DEB727970FB6F894DEBFA0
:1007C0000FBECDBF81E290E0FC01108282E290E09A
:1007D0002FEFFC01208384E290E02FEFFC012083C7
:1007E00085E290E0FC01108287E290E020EFFC01BE
:1007F000208388E290E02FE0FC01208388E191E0F3
:100800009F838E8381E090E09C838B838FEF8D8329
:100810008D81809318018AE090E0A0E0B0E08093A1
:10082000190190931A01A0931B01B0931C018091B0
:10083000190190911A01A0911B01B0911C018093A4
:100840001D0190931E01A0931F01B09320018BE224
:1008500093E090932201809321016AE070E080E0B0
:1008600090E00E94D5000E9403011A8219829BC069
:1008700089819A81880F991F9E012F5F3F4F820FB8
:10088000931F0596FC0180819181FC0125813681B1
:100890004781508589819A81880F991FBE016F5FBA
:1008A0007F4F860F971F0596FC0180819181FC0187
:1008B00081819281A381B481281739074A075B0798
:1008C00009F045C089819A81880F991F9E012F5F89
:1008D0003F4F820F931F0596FC0100811181898192
:1008E0009A81880F991F9E012F5F3F4F820F931FA0
:1008F0000596FC0180819181FC01218532858981E9
:100900009A81880F991FAE014F5F5F4F840F951F2B
:100910000596FC0180819181FC018081082E000CEC
:10092000990BF9010995F801808389819A81880FD3
:10093000991F9E012F5F3F4F820F931F0596FC0169
:1009400080819181FC01158216821782108689812F
:100950009A81880F991F9E012F5F3F4F820F931F2F
:100960000596FC012081318189819A81880F991F28
:10097000AE014F5F5F4F840F951F0596FC0180818C
:100980009181FC0185819681A781B0850A96A11D80
:10099000B11DF90185839683A783B08789819A81E8
:1009A00001969A83898329813A818B819C812817BA
:1009B000390708F45DCF02C0109212018091120134
:1009C0008823D1F352CFA1E21A2EAA1BBB1BFD0133
:1009D0000DC0AA1FBB1FEE1FFF1FA217B307E4071E
:1009E000F50720F0A21BB30BE40BF50B661F771F76
:1009F000881F991F1A9469F7609570958095909556
:100A00009B01AC01BD01CF010895EE0FFF1F002433
:100A1000001C0BBE0790F691E02D0994F894FFCFCF
:100A20000000000200000000AC0000000000010017
:020A30000000C4
:00000001FF
