:100000000C94B3000C94D2000C94D2000C94D20047
:100010000C94D2000C94D2000C94D2000C94D20018
:100020000C94D2000C94D2000C94D2000C94D20008
:100030000C94D2000C9479010C94D2000C94D20050
:100040000C94D2000C94D2000C94D2000C94D200E8
:100050000C94D2000C94D2000C94D2000C94D200D8
:100060000C94D2000C94D2000C94D2000C94D200C8
:100070000C94D2000C94D2000C94D2000C94D200B8
:100080000C94D2000C94D2000C94D2004A048D043B
:100090008D048D048D048D048D048D048D048D04D8
:1000A0008D048D048D048D048D048D048D048D04C8
:1000B0008D048D048D048D048D048D048D048D04B8
:1000C0008D048D048D048D048D048D048D048D04A8
:1000D0008D0489048D048D048D048D048D048D049C
:1000E00082048D048D048D048D048D0486044E04D9
:1000F000520456045A045E04620466046A046E04E0
:100100008D048D048D048D048D048D048D04720482
:1001100076047A047E04BE04C904CE04DA04EF0433
:10012000F404000515051A0526053B0540054C0598
:1001300061056605720587058C059805A305EF0521
:10014000BD05C105EF05C405C805EF05CB05CF0505
:10015000EF05D205D605EF05D905DD05EF05E0056C
:10016000E405EF05EA0511241FBECFEFD0E4DEBFA2
:10017000CDBF11E0A0E0B1E0E2EBF3E100E00BBFA6
:1001800002C007900D92A03AB107D9F721E0A0EA8A
:10019000B1E001C01D92A03DB207E1F70E94A506A3
:1001A0000C94D7090C940000CF93DF9300D01F92DA
:1001B000CDB7DEB789837B836A8389818A3031F446
:1001C0008A819B81BC018DE00E94D40080EC90E08C
:1001D000FC018081882F90E080729927892BB1F3F0
:1001E00086EC90E02981FC01208380E090E00F9074
:1001F0000F900F90DF91CF910895CF93DF9300D0B0
:1002000000D0CDB7DEB769837A838B839C838981E5
:100210009A81AB81BC8180930E0190930F01A093D2
:100220001001B093110180910E0190910F01A091E6
:100230001001B09111018093A1019093A201A093AC
:10024000A301B093A40100000F900F900F900F90A6
:10025000DF91CF910895CF93DF93CDB7DEB781E8DB
:1002600090E02BE0FC01208388E890E02DE730E06F
:10027000FC01318320838FE690E022E0FC012083A3
:1002800084E890E0FC011182108280910E0190912F
:100290000F01A0911001B09111018093A1019093E1
:1002A000A201A093A301B093A4018FE590E02FE5F4
:1002B00030E0F90120812068FC0120830000DF91FB
:1002C000CF910895CF93DF93CDB7DEB781E890E06B
:1002D000FC0110820000DF91CF910895CF93DF934E
:1002E000CDB7DEB781E08093A0010000DF91CF9110
:1002F00008951F920F9200905F000F9211240090BA
:100300005B000F922F933F934F935F936F937F9375
:100310008F939F93AF93BF93EF93FF93CF93DF930D
:10032000CDB7DEB78091A1019091A201A091A30168
:10033000B091A4010197A109B1098093A101909303
:10034000A201A093A301B093A4018091A101909177
:10035000A201A091A301B091A401892B8A2B8B2B20
:1003600091F40E946E0180910E0190910F01A09175
:100370001001B09111018093A1019093A201A0936B
:10038000A301B093A4010000DF91CF91FF91EF9101
:10039000BF91AF919F918F917F916F915F914F919D
:1003A0003F912F910F9000925B000F9000925F00A1
:1003B0000F901F901895CF93DF9300D01F92CDB769
:1003C000DEB789836A834B838B81882371F08A81AE
:1003D000282F30E081E090E002C0880F991F2A9515
:1003E000E2F7982F8981892B0EC08A81282F30E06F
:1003F00081E090E002C0880F991F2A95E2F7982FBC
:100400009095898189230F900F900F90DF91CF9164
:100410000895CF93DF9300D0CDB7DEB789836A8389
:100420008A81282F30E081E090E002C0880F991F78
:100430002A95E2F7982F898189230F900F90DF91F9
:10044000CF9108950F931F93CF93DF93CDB7DEB76E
:1004500008E210E040E064E08FEF0E94DB01F80169
:100460008083000086E290E0FC01808160E00E94D1
:100470000902882311F481E3C4C086E290E0FC0104
:10048000808161E00E940902882311F484E3B9C0ED
:1004900086E290E0FC01808162E00E9409028823EC
:1004A00011F487E3AEC086E290E0FC01808163E056
:1004B0000E940902882311F48AE2A3C008E210E036
:1004C00040E065E08FEF0E94DB01F80180830000CF
:1004D00086E290E0FC01808160E00E9409028823AE
:1004E00011F482E38EC086E290E0FC01808161E03D
:1004F0000E940902882311F485E383C086E290E01C
:10050000FC01808162E00E940902882311F488E3E3
:1005100078C086E290E0FC01808163E00E940902DD
:10052000882311F480E36DC008E210E040E066E04B
:100530008FEF0E94DB01F8018083000086E290E0EB
:10054000FC01808160E00E940902882311F483E3AA
:1005500058C086E290E0FC01808161E00E940902BF
:10056000882311F486E34DC086E290E0FC0180818F
:1005700062E00E940902882311F489E342C086E206
:1005800090E0FC01808163E00E940902882311F45D
:1005900083E237C008E210E040E067E08FEF0E949E
:1005A000DB01F8018083000086E290E0FC0180819D
:1005B00060E00E940902882311F481E422C086E2EF
:1005C00090E0FC01808161E00E940902882311F41F
:1005D00082E417C086E290E0FC01808162E00E9424
:1005E0000902882311F483E40CC086E290E0FC0148
:1005F000808163E00E940902882311F484E401C031
:1006000080E0DF91CF911F910F910895CF93DF93F9
:10061000CDB7DEB72C970FB6F894DEBF0FBECDBFB7
:100620006D837E838F83988729873A874B875C8782
:100630008D819E81AF81B88529853A854B855C8502
:10064000BC01CD010E941808DC01CB0189839A838B
:10065000AB83BC8389819A81AB81BC81892B8A2B36
:100660008B2B29F489859A85AB85BC8511C089853A
:100670009A85AB85BC858D839E83AF83B88789813E
:100680009A81AB81BC8189879A87AB87BC87D0CFA1
:10069000BC01CD012C960FB6F894DEBF0FBECDBFC6
:1006A000DF91CF9108950F931F93CF93DF9300D0E5
:1006B00000D0CDB7DEB769837A838B839C8380912A
:1006C000AB019091AC01A091AD01B091AE019C0144
:1006D000AD0169817A818B819C810E9443088823C6
:1006E00009F477C020E030E0A90169817A818B812B
:1006F0009C810E944308882351F481E990E021E91C
:1007000030E0F90120812870FC01208309C081E9D3
:1007100090E021E930E0F90120812360FC01208391
:1007200028E539E344E75FE369817A818B819C8125
:100730000E944308882344F488E990E02FEF3FEFBC
:10074000FC013183208334C020E034E244EF56E4DE
:1007500069817A818B819C810E946509181634F425
:1007600088E990E0FC011182108222C008E910E0C3
:1007700020E030E040E053E469817A818B819C8104
:100780000E946A09DC01CB019C01AD0160E074E2CA
:1007900084EF9AE40E944808DC01CB01BC01CD0142
:1007A0000E94BA08DC01CB010197F8019183808394
:1007B00084E990E0FC011182108289819A81AB81E9
:1007C000BC818093AB019093AC01A093AD01B09339
:1007D000AE0100000F900F900F900F90DF91CF911E
:1007E0001F910F910895CF93DF93CDB7DEB780E9C6
:1007F00090E020E4FC01208381E990E02BE0FC0103
:10080000208360E070E0CB010E9453030000DF9181
:10081000CF910895CF93DF93CDB7DEB780E990E015
:10082000FC01108281E990E0FC0110820000DF9160
:10083000CF910895CF93DF9300D01F92CDB7DEB74D
:100840009B838A830E94220289838A819B81892BD0
:1008500019F41B821A8203C01B821A8200008A814B
:100860009B81892B09F05EC08981882F90E0092E39
:10087000000CAA0BBB0B40E050E024E430E0841BEA
:10088000950B2817390708F448C08A5B9F4FFC0175
:100890000C943A088FE18093A50143C081E08093D6
:1008A000A5013FC082E08093A5013BC083E0809317
:1008B000A50137C084E08093A50133C085E0809313
:1008C000A5012FC086E08093A5012BC087E080930F
:1008D000A50127C088E08093A50123C089E080930B
:1008E000A5011FC08AE08093A5011BC08BE0809307
:1008F000A50117C08CE08093A50113C08DE0809303
:10090000A5010FC08EE08093A5010BC01092A50138
:1009100008C08FE08093A50104C08BE18093A501FE
:10092000000000008A819B810F900F900F90DF9153
:10093000CF910895CF93DF9300D01F92CDB7DEB74C
:100940009B838A8383E290E0FC018081809580789C
:1009500089838A819B81092E000CAA0BBB0B40E086
:1009600050E023E130E0841B950B2817390708F489
:10097000EDC085579F4FFC010C943A089091A5015A
:1009800081E09F3009F080E0882F90E09B838A838C
:10099000E0C082E090E09B838A83DBC08091A50168
:1009A0008F3019F481E090E002C083E090E09B83F7
:1009B0008A83CFC08091A5018F3129F483E090E034
:1009C0009B838A83C6C08091A501813029F484E08D
:1009D00090E09B838A83BDC01B821A82BAC085E0E7
:1009E00090E09B838A83B5C08091A501813019F482
:1009F00084E090E002C086E090E09B838A83A9C0F7
:100A00008091A5018F3129F486E090E09B838A8351
:100A1000A0C08091A501823029F487E090E09B83FB
:100A20008A8397C01B821A8294C088E090E09B83DF
:100A30008A838FC08091A501823019F487E090E00D
:100A400002C089E090E09B838A8383C08091A501E6
:100A50008F3129F489E090E09B838A837AC080916A
:100A6000A501833029F48AE090E09B838A8371C0DA
:100A70001B821A826EC08BE090E09B838A8369C0E0
:100A80008091A501833019F48AE090E002C08CE0E7
:100A900090E09B838A835DC08091A5018F3129F40A
:100AA0008CE090E09B838A8354C08091A5018430C0
:100AB00029F48DE090E09B838A834BC01B821A82CD
:100AC00048C08EE090E09B838A8343C08091A5015B
:100AD000843019F48DE090E002C08FE090E09B83B9
:100AE0008A8337C08091A5018F3129F48FE090E08F
:100AF0009B838A832EC08091A501853029F480E1F3
:100B000090E09B838A8325C01B821A8222C081E1E8
:100B100090E09B838A831DC08091A501853019F4E4
:100B200080E190E002C082E190E09B838A8311C063
:100B30008981882319F083E190E002C082E190E08E
:100B40009B838A8306C01B821A8203C01B821A827F
:100B500000008A819B81092E000CAA0BBB0B40E090
:100B600050E023E130E0841B950B28173907A8F1EA
:100B700081569F4FFC010C943A0880E88093A701AE
:100B80002FC01092A7012CC080E88093A70128C035
:100B90001092A70125C080E88093A70121C0109280
:100BA000A7011EC080E88093A7011AC01092A70178
:100BB00017C080E88093A70113C01092A70110C04E
:100BC00080E88093A7010CC01092A70181E0809378
:100BD000A60106C01092A60103C0000001C00000DB
:100BE0008A819B810F900F900F90DF91CF91089594
:100BF000CF93DF9300D01F92CDB7DEB79B838A835C
:100C000080E290E0FC018081882F90E0817099273C
:100C100021E0892B09F020E029838A819B818330A0
:100C2000910591F08430910509F444C0892B09F0B5
:100C30004CC08981882329F083E090E09B838A83DC
:100C400048C01B821A8245C083E090E09B838A8360
:100C50008091A9019091AA019C0140E050E080910F
:100C6000A801882F90E0880F991F880F991F8A5A32
:100C70009E4FFC0180819181A281B38128173907A1
:100C80004A075B0728F483E090E09B838A8309C0CE
:100C90008091A8018F5F8093A8011092AA01109201
:100CA000A9018091A801813198F084E090E09B83B4
:100CB0008A830EC08981882319F084E090E002C005
:100CC00080E090E09B838A8304C01B821A8201C06B
:100CD00000008A819B818330910579F084309105F1
:100CE00049F1892B09F029C00E94F3031092A80151
:100CF0001092AA011092A90120C08091A801882F0A
:100D000090E0880F991F880F991F8E5E9E4FFC01FF
:100D100080819181A281B381BC01CD010E945303E6
:100D20008091A9019091AA01C2969093AA01809303
:100D3000A90103C00E940A0400008A819B810F90D0
:100D40000F900F90DF91CF9108950F931F93CF9342
:100D5000DF93CDB7DEB72B970FB6F894DEBF0FBE8B
:100D6000CDBF81E290E0FC01108282E290E02FEFA3
:100D7000FC01208384E290E02FE7FC01208385E2E0
:100D800090E0FC01108287E290E020EFFC012083DC
:100D900088E290E02FE0FC0120838AE290E02FEFD0
:100DA000FC0120838BE290E0FC01108286E0EAE9FE
:100DB000F1E0DE01169601900D928A95E1F783E04D
:100DC00090E09C838B838FEF8D838D818093AF0127
:100DD00081E090E0A0E0B0E08093B0019093B10199
:100DE000A093B201B093B3018091B0019091B10191
:100DF000A091B201B091B3018093B4019093B50179
:100E0000A093B601B093B7018AE194E09093B90141
:100E10008093B8018D818093BA0181E090E0A0E0D9
:100E2000B0E08093BB019093BC01A093BD01B0934F
:100E3000BE018091BB019091BC01A091BD01B09118
:100E4000BE018093BF019093C001A093C101B093F4
:100E5000C2018AE994E09093C4018093C3018D811B
:100E60008093C50188EC90E0A0E0B0E08093C601DB
:100E70009093C701A093C801B093C9018091C601A6
:100E80009091C701A091C801B091C9018093CA0196
:100E90009093CB01A093CC01B093CD0188EF95E066
:100EA0009093CF018093CE0161E070E080E090E00C
:100EB0000E94FD000E942B010E94F3031A821982F6
:100EC0009BC089819A81880F991F9E012F5F3F4F98
:100ED000820F931F0596FC0180819181FC01258181
:100EE00036814781508589819A81880F991FBE017B
:100EF0006F5F7F4F860F971F0596FC018081918160
:100F0000FC0181819281A381B481281739074A07A6
:100F10005B0709F045C089819A81880F991F9E015E
:100F20002F5F3F4F820F931F0596FC0100811181B7
:100F300089819A81880F991F9E012F5F3F4F820FF1
:100F4000931F0596FC0180819181FC0121853285EA
:100F500089819A81880F991FAE014F5F5F4F840F7F
:100F6000951F0596FC0180819181FC018081082EEE
:100F7000000C990BF9010995F801808389819A8108
:100F8000880F991F9E012F5F3F4F820F931F059679
:100F9000FC0180819181FC011582168217821086E6
:100FA00089819A81880F991F9E012F5F3F4F820F81
:100FB000931F0596FC012081318189819A81880FD8
:100FC000991FAE014F5F5F4F840F951F0596FC017F
:100FD00080819181FC0185819681A781B0850196F0
:100FE000A11DB11DF90185839683A783B0878981EF
:100FF0009A8101969A83898329813A818B819C8188
:101000002817390708F45DCF85E290E02091A6010A
:10101000FC0120838BE290E02091A701FC0120835A
:1010200002C01092A0018091A0018823D1F346CF85
:10103000A1E21A2EAA1BBB1BFD010DC0AA1FBB1FDC
:10104000EE1FFF1FA217B307E407F50720F0A21B4E
:10105000B30BE40BF50B661F771F881F991F1A94BB
:1010600069F760957095809590959B01AC01BD01E5
:10107000CF010895EE0FFF1F0024001C0BBE079048
:10108000F691E02D09940E94F00808F481E008959B
:101090000E945C080C942B090E94240958F00E94BD
:1010A0001D0940F029F45F3F29F00C9414095111F7
:1010B0000C945F090C941A090E943C0968F3992367
:1010C000B1F3552391F3951B550BBB27AA27621744
:1010D0007307840738F09F5F5F4F220F331F441F51
:1010E000AA1FA9F335D00E2E3AF0E0E832D0915085
:1010F0005040E695001CCAF72BD0FE2F29D0660F72
:10110000771F881FBB1F261737074807AB07B0E8B4
:1011100009F0BB0B802DBF01FF2793585F4F3AF0BA
:101120009E3F510578F00C9414090C945F095F3FC1
:10113000E4F3983ED4F3869577956795B795F79540
:101140009F5FC9F7880F911D9695879597F9089528
:10115000E1E0660F771F881FBB1F621773078407C4
:10116000BA0720F0621B730B840BBA0BEE1F88F7D3
:10117000E09508950E94C1086894B1110C945F092C
:1011800008950E94440988F09F5798F0B92F992735
:10119000B751B0F0E1F0660F771F881F991F1AF062
:1011A000BA95C9F714C0B13091F00E945E09B1E060
:1011B00008950C945E09672F782F8827B85F39F05F
:1011C000B93FCCF3869577956795B395D9F73EF4FB
:1011D00090958095709561957F4F8F4F9F4F0895A3
:1011E000990F0008550FAA0BE0E8FEEF1616170638
:1011F000E807F907C0F012161306E407F50798F0A0
:10120000621B730B840B950B39F40A2661F0232BB8
:10121000242B252B21F408950A2609F4A140A69534
:101220008FEF811D811D089597F99F6780E870E019
:1012300060E008959FEF80EC089500240A9416164C
:10124000170618060906089500240A9412161306B4
:10125000140605060895092E0394000C11F4882342
:1012600052F0BB0F40F4BF2B11F460FF04C06F5F5E
:101270007F4F8F4F9F4F089557FD9058440F551F34
:1012800059F05F3F71F04795880F97FB991F61F008
:101290009F3F79F087950895121613061406551F7F
:1012A000F2CF4695F1DF08C0161617061806991FEB
:1012B000F1CF86957105610508940895E894BB27E0
:1012C00066277727CB0197F908950E94F00808F464
:1012D0008FEF08950E947D090C942B090E941D092F
:1012E00038F00E94240920F0952311F00C94140981
:1012F0000C941A0911240C945F090E943C0970F3A4
:10130000959FC1F3950F50E0551F629FF001729FAA
:10131000BB27F00DB11D639FAA27F00DB11DAA1FB9
:10132000649F6627B00DA11D661F829F2227B00D06
:10133000A11D621F739FB00DA11D621F839FA00D91
:10134000611D221F749F3327A00D611D231F849FE1
:10135000600D211D822F762F6A2F11249F57504038
:101360009AF0F1F088234AF0EE0FFF1FBB1F661FB3
:10137000771F881F91505040A9F79E3F510580F07C
:101380000C9414090C945F095F3FE4F3983ED4F386
:10139000869577956795B795F795E7959F5FC1F720
:1013A000FE2B880F911D9695879597F90895F894CF
:0213B000FFCF6D
:1013B2000000000200000000D40000000000010054
:1013C20000000000DC43000000000000DC430000DD
:1013D20000000000DC4300000000719DAE430000ED
:1013E200000000D00244000000000000DC430000C6
:1013F2000000719DAE430000000000D002440000D6
:1014020000000000DC43F401000032000000F4019F
:10141200000032000000F401000032000000FA0077
:101422000000320000009600000032000000F401CB
:10143200000032000000FA000000320000009600B6
:10144200000032000000EE020000AF01BA01C50147
:00000001FF
