:100000000C948B000C94AA000C94AA000C94AA00E7
:100010000C94AA000C94AA000C94AA000C94AA00B8
:100020000C94AA000C94AA000C94AA000C94AA00A8
:100030000C94AA000C9451010C94AA000C94AA00F0
:100040000C94AA000C94AA000C94AA000C94AA0088
:100050000C94AA000C94AA000C94AA000C94AA0078
:100060000C94AA000C94AA000C94AA000C94AA0068
:100070000C94AA000C94AA000C94AA000C94AA0058
:100080000C94AA000C94AA000C94AA000F03740309
:1000900074037403740374037403740374037403A8
:1000A0007403740374037403740374037403740398
:1000B0007403740374037403740374037403740388
:1000C0007403740374037403740374037403740378
:1000D00074036E037403740374037403740374036E
:1000E00063037403740374037403740369031503D3
:1000F0001B03210327032D03330339033F03450368
:1001000074037403740374037403740374034B0360
:10011000510357035D0311241FBECFEFD0E4DEBFB0
:10012000CDBF11E0A0E0B1E0ECE0F7E000E00BBFF4
:1001300002C007900D92A231B107D9F721E0A2E1E8
:10014000B1E001C01D92A731B207E1F70E94DE02C3
:100150000C9484030C940000CF93DF9300D01F9283
:10016000CDB7DEB789837B836A8389818A3031F496
:100170008A819B81BC018DE00E94AC0080EC90E004
:10018000FC018081882F90E080729927892BB1F340
:1001900086EC90E02981FC01208380E090E00F90C4
:1001A0000F900F90DF91CF910895CF93DF9300D000
:1001B00000D0CDB7DEB769837A838B839C83898136
:1001C0009A81AB81BC8180930E0190930F01A09323
:1001D0001001B093110180910E0190910F01A09137
:1001E0001001B09111018093130190931401A09319
:1001F0001501B093160100000F900F900F900F9013
:10020000DF91CF910895CF93DF93CDB7DEB781E82B
:1002100090E02BE0FC01208388E890E02DE730E0BF
:10022000FC01318320838FE690E022E0FC012083F3
:1002300084E890E0FC011182108280910E0190917F
:100240000F01A0911001B0911101809313019093BF
:100250001401A0931501B09316018FE590E02FE5EE
:1002600030E0F90120812068FC0120830000DF914B
:10027000CF910895CF93DF93CDB7DEB781E890E0BB
:10028000FC0110820000DF91CF910895CF93DF939E
:10029000CDB7DEB781E0809312010000DF91CF91EE
:1002A00008951F920F9200905F000F92112400900A
:1002B0005B000F922F933F934F935F936F937F93C6
:1002C0008F939F93AF93BF93EF93FF93CF93DF935E
:1002D000CDB7DEB78091130190911401A091150163
:1002E000B09116010197A109B10980931301909370
:1002F0001401A0931501B093160180911301909100
:100300001401A0911501B0911601892B8A2B8B2B1A
:1003100091F40E94460180910E0190910F01A091ED
:100320001001B09111018093130190931401A093D7
:100330001501B09316010000DF91CF91FF91EF916D
:10034000BF91AF919F918F917F916F915F914F91ED
:100350003F912F910F9000925B000F9000925F00F1
:100360000F901F901895CF93DF9300D01F92CDB7B9
:10037000DEB789836A834B838B81882371F08A81FE
:10038000282F30E081E090E002C0880F991F2A9565
:10039000E2F7982F8981892B0EC08A81282F30E0BF
:1003A00081E090E002C0880F991F2A95E2F7982F0C
:1003B0009095898189230F900F900F90DF91CF91B5
:1003C0000895CF93DF9300D0CDB7DEB789836A83DA
:1003D0008A81282F30E081E090E002C0880F991FC9
:1003E0002A95E2F7982F898189230F900F90DF914A
:1003F000CF9108950F931F93CF93DF93CDB7DEB7BF
:1004000008E210E040E064E08FEF0E94B301F801E1
:100410008083000086E290E0FC01808160E00E9421
:10042000E101882311F481E3C4C086E290E0FC017D
:10043000808161E00E94E101882311F484E3B9C066
:1004400086E290E0FC01808162E00E94E101882365
:1004500011F487E3AEC086E290E0FC01808163E0A6
:100460000E94E101882311F48AE2A3C008E210E0AF
:1004700040E065E08FEF0E94B301F8018083000047
:1004800086E290E0FC01808160E00E94E101882327
:1004900011F482E38EC086E290E0FC01808161E08D
:1004A0000E94E101882311F485E383C086E290E095
:1004B000FC01808162E00E94E101882311F488E35D
:1004C00078C086E290E0FC01808163E00E94E10157
:1004D000882311F480E36DC008E210E040E066E09C
:1004E0008FEF0E94B301F8018083000086E290E064
:1004F000FC01808160E00E94E101882311F483E324
:1005000058C086E290E0FC01808161E00E94E10138
:10051000882311F486E34DC086E290E0FC018081DF
:1005200062E00E94E101882311F489E342C086E27F
:1005300090E0FC01808163E00E94E101882311F4D6
:1005400083E237C008E210E040E067E08FEF0E94EE
:10055000B301F8018083000086E290E0FC01808115
:1005600060E00E94E101882311F481E422C086E268
:1005700090E0FC01808161E00E94E101882311F498
:1005800082E417C086E290E0FC01808162E00E9474
:10059000E101882311F483E40CC086E290E0FC01C1
:1005A000808163E00E94E101882311F484E401C0AA
:1005B00080E0DF91CF911F910F910895CF93DF934A
:1005C0001F92CDB7DEB784E290E02FEFFC012083CD
:1005D00085E290E0FC01108287E290E020EFFC01D0
:1005E000208388E290E02FE0FC0120830E94FA0142
:1005F00089838981882F90E0092E000CAA0BBB0B00
:1006000040E050E024E430E0841B950B28173907C4
:1006100008F46AC08A5B9F4FFC010C947B0385E25F
:1006200090E02FE1FC01208365C085E290E021E0AD
:10063000FC0120835FC085E290E022E0FC01208382
:1006400059C085E290E023E0FC01208353C085E29D
:1006500090E024E0FC0120834DC085E290E025E09D
:10066000FC01208347C085E290E026E0FC01208366
:1006700041C085E290E027E0FC0120833BC085E299
:1006800090E028E0FC01208335C085E290E029E07D
:10069000FC0120832FC085E290E02AE0FC0120834A
:1006A00029C085E290E02BE0FC01208323C085E295
:1006B00090E02CE0FC0120831DC085E290E02DE05D
:1006C000FC01208317C085E290E02EE0FC0120832E
:1006D00011C085E290E0FC0110820CC085E290E040
:1006E0002FE0FC01208306C085E290E02BE1FC01B5
:1006F000208300007BCFEE0FFF1F0024001C0BBEE9
:0C0700000790F691E02D0994F894FFCFCB
:10070C000000000200000000AC000000000001002E
:02071C000000DB
:00000001FF
